{
  "contractName": "Ballot",
  "abi": [
    {
      "constant": true,
      "inputs": [],
      "name": "ballotName",
      "outputs": [
        {
          "name": "",
          "type": "bytes32"
        }
      ],
      "payable": false,
      "stateMutability": "view",
      "type": "function"
    },
    {
      "constant": true,
      "inputs": [],
      "name": "chairman",
      "outputs": [
        {
          "name": "",
          "type": "address"
        }
      ],
      "payable": false,
      "stateMutability": "view",
      "type": "function"
    },
    {
      "inputs": [
        {
          "name": "_ballotName",
          "type": "bytes32"
        }
      ],
      "payable": false,
      "stateMutability": "nonpayable",
      "type": "constructor"
    },
    {
      "constant": false,
      "inputs": [
        {
          "name": "_partyAddr",
          "type": "address"
        },
        {
          "name": "_partyName",
          "type": "bytes32"
        }
      ],
      "name": "addParty",
      "outputs": [],
      "payable": false,
      "stateMutability": "nonpayable",
      "type": "function"
    }
  ],
  "bytecode": "0x6060604052341561000f57600080fd5b6040516020806103e483398101604052808051906020019091905050336000806101000a81548173ffffffffffffffffffffffffffffffffffffffff021916908373ffffffffffffffffffffffffffffffffffffffff16021790555080600381600019169055505061035e806100866000396000f300606060405260043610610057576000357c0100000000000000000000000000000000000000000000000000000000900463ffffffff1680631b26586c1461005c57806387f7b9751461008d5780639afbe66d146100e2575b600080fd5b341561006757600080fd5b61006f610128565b60405180826000191660001916815260200191505060405180910390f35b341561009857600080fd5b6100a061012e565b604051808273ffffffffffffffffffffffffffffffffffffffff1673ffffffffffffffffffffffffffffffffffffffff16815260200191505060405180910390f35b34156100ed57600080fd5b610126600480803573ffffffffffffffffffffffffffffffffffffffff1690602001909190803560001916906020019091905050610153565b005b60035481565b6000809054906101000a900473ffffffffffffffffffffffffffffffffffffffff1681565b3373ffffffffffffffffffffffffffffffffffffffff166000809054906101000a900473ffffffffffffffffffffffffffffffffffffffff1673ffffffffffffffffffffffffffffffffffffffff161415156101ab57fe5b600073ffffffffffffffffffffffffffffffffffffffff168273ffffffffffffffffffffffffffffffffffffffff16141580156102355750600260008373ffffffffffffffffffffffffffffffffffffffff1673ffffffffffffffffffffffffffffffffffffffff16815260200190815260200160002060000160009054906101000a900460ff16155b151561024057600080fd5b80600260008473ffffffffffffffffffffffffffffffffffffffff1673ffffffffffffffffffffffffffffffffffffffff16815260200190815260200160002060020181600019169055506000600260008473ffffffffffffffffffffffffffffffffffffffff1673ffffffffffffffffffffffffffffffffffffffff168152602001908152602001600020600101819055506001600260008473ffffffffffffffffffffffffffffffffffffffff1673ffffffffffffffffffffffffffffffffffffffff16815260200190815260200160002060000160006101000a81548160ff02191690831515021790555050505600a165627a7a72305820e117f7148014ba78b8c171f892b11cb58060e489ebb63a4197b47cf1dab1e8430029",
  "source": "pragma solidity ^0.4.4;\ncontract Ballot {\n  address public chairman;\n  uint partyCounter;\n  //Parties \n  struct Party {\n    bool alreadyAdded;\n    uint voteCount;\n    bytes32 name;\n  }\n  mapping (address => Party)partListDict;\n  bytes32 public ballotName;\n\n  modifier onlyChairman() {\n    assert(chairman == msg.sender);\n    _;\n  }\n\n  //constructor\n  function Ballot(bytes32 _ballotName) public {\n    chairman = msg.sender;\n    ballotName = _ballotName;\n  }\n\n  /**\n     - Party should not be duplicated\n     - Only chairman can add party to the list.\n   */\n  function addParty(address _partyAddr, bytes32 _partyName) public onlyChairman {\n    require(_partyAddr != address(0) && !partListDict[_partyAddr].alreadyAdded);\n      partListDict[_partyAddr].name = _partyName;\n      partListDict[_partyAddr].voteCount = 0;\n      partListDict[_partyAddr].alreadyAdded = true;\n  }\n\n  // function getPartyList() public returns (bytes32[]){\n    \n  //   bytes32[] memory partyNamesArr =  new bytes32[](gblpartyListArr.length);\n  //       for(uint i = 0; i < gblpartyListArr.length; i++){\n  //          partyNamesArr[i] = gblpartyList[gblpartyListArr[i]].name;\n  //       }\n  //       return partyNamesArr;\n    \n  // }\n}\n",
  "sourcePath": "/home/vishwasb/Desktop/tdd_truffle_bc/contracts/Ballot.sol",
  "compiler": {
    "name": "solc",
    "version": "0.4.19+commit.c4cbbb05.Emscripten.clang"
  },
  "schemaVersion": "2.0.0",
  "updatedAt": "2018-03-09T05:30:57.671Z"
}