{
  "contractName": "Ballot",
  "abi": [
    {
      "constant": true,
      "inputs": [],
      "name": "ballotName",
      "outputs": [
        {
          "name": "",
          "type": "bytes32"
        }
      ],
      "payable": false,
      "stateMutability": "view",
      "type": "function"
    },
    {
      "constant": true,
      "inputs": [
        {
          "name": "",
          "type": "address"
        }
      ],
      "name": "voterListDict",
      "outputs": [
        {
          "name": "hasVoted",
          "type": "bool"
        },
        {
          "name": "alreadyAdded",
          "type": "bool"
        }
      ],
      "payable": false,
      "stateMutability": "view",
      "type": "function"
    },
    {
      "constant": true,
      "inputs": [],
      "name": "chairman",
      "outputs": [
        {
          "name": "",
          "type": "address"
        }
      ],
      "payable": false,
      "stateMutability": "view",
      "type": "function"
    },
    {
      "inputs": [
        {
          "name": "_ballotName",
          "type": "bytes32"
        }
      ],
      "payable": false,
      "stateMutability": "nonpayable",
      "type": "constructor"
    },
    {
      "anonymous": false,
      "inputs": [
        {
          "indexed": false,
          "name": "_partyAddr",
          "type": "address"
        },
        {
          "indexed": false,
          "name": "_partyName",
          "type": "bytes32"
        }
      ],
      "name": "PartyAdded",
      "type": "event"
    },
    {
      "anonymous": false,
      "inputs": [
        {
          "indexed": false,
          "name": "_voterAddr",
          "type": "address"
        }
      ],
      "name": "VoterAdded",
      "type": "event"
    },
    {
      "anonymous": false,
      "inputs": [
        {
          "indexed": false,
          "name": "_voterAddr",
          "type": "address"
        },
        {
          "indexed": false,
          "name": "_partyAddr",
          "type": "address"
        }
      ],
      "name": "VotingDone",
      "type": "event"
    },
    {
      "constant": false,
      "inputs": [
        {
          "name": "_partyAddr",
          "type": "address"
        },
        {
          "name": "_partyName",
          "type": "bytes32"
        }
      ],
      "name": "addParty",
      "outputs": [],
      "payable": false,
      "stateMutability": "nonpayable",
      "type": "function"
    },
    {
      "constant": false,
      "inputs": [
        {
          "name": "_voterAddr",
          "type": "address"
        }
      ],
      "name": "addVoter",
      "outputs": [],
      "payable": false,
      "stateMutability": "nonpayable",
      "type": "function"
    },
    {
      "constant": false,
      "inputs": [
        {
          "name": "_partyAddr",
          "type": "address"
        }
      ],
      "name": "doVoting",
      "outputs": [],
      "payable": false,
      "stateMutability": "nonpayable",
      "type": "function"
    },
    {
      "constant": true,
      "inputs": [
        {
          "name": "_partyAddr",
          "type": "address"
        }
      ],
      "name": "getVoteCount",
      "outputs": [
        {
          "name": "",
          "type": "uint256"
        }
      ],
      "payable": false,
      "stateMutability": "view",
      "type": "function"
    }
  ],
  "bytecode": "0x6060604052341561000f57600080fd5b604051602080610b9e83398101604052808051906020019091905050336000806101000a81548173ffffffffffffffffffffffffffffffffffffffff021916908373ffffffffffffffffffffffffffffffffffffffff160217905550806003816000191690555050610b18806100866000396000f300606060405260043610610083576000357c0100000000000000000000000000000000000000000000000000000000900463ffffffff168063192f8fa8146100885780631b26586c146100c15780636b06bfdd146100f257806387f7b9751461014e5780639afbe66d146101a3578063e652f4cc146101e9578063f4ab9adf14610236575b600080fd5b341561009357600080fd5b6100bf600480803573ffffffffffffffffffffffffffffffffffffffff1690602001909190505061026f565b005b34156100cc57600080fd5b6100d4610544565b60405180826000191660001916815260200191505060405180910390f35b34156100fd57600080fd5b610129600480803573ffffffffffffffffffffffffffffffffffffffff1690602001909190505061054a565b6040518083151515158152602001821515151581526020019250505060405180910390f35b341561015957600080fd5b610161610588565b604051808273ffffffffffffffffffffffffffffffffffffffff1673ffffffffffffffffffffffffffffffffffffffff16815260200191505060405180910390f35b34156101ae57600080fd5b6101e7600480803573ffffffffffffffffffffffffffffffffffffffff16906020019091908035600019169060200190919050506105ad565b005b34156101f457600080fd5b610220600480803573ffffffffffffffffffffffffffffffffffffffff16906020019091905050610801565b6040518082815260200191505060405180910390f35b341561024157600080fd5b61026d600480803573ffffffffffffffffffffffffffffffffffffffff169060200190919050506108e0565b005b60011515600260003373ffffffffffffffffffffffffffffffffffffffff1673ffffffffffffffffffffffffffffffffffffffff16815260200190815260200160002060000160019054906101000a900460ff161515148015610325575060001515600260003373ffffffffffffffffffffffffffffffffffffffff1673ffffffffffffffffffffffffffffffffffffffff16815260200190815260200160002060000160009054906101000a900460ff161515145b151561033057600080fd5b600073ffffffffffffffffffffffffffffffffffffffff168173ffffffffffffffffffffffffffffffffffffffff16141580156103b95750600160008273ffffffffffffffffffffffffffffffffffffffff1673ffffffffffffffffffffffffffffffffffffffff16815260200190815260200160002060000160009054906101000a900460ff165b15156103c457600080fd5b60018060008373ffffffffffffffffffffffffffffffffffffffff1673ffffffffffffffffffffffffffffffffffffffff1681526020019081526020016000206001015401600160008373ffffffffffffffffffffffffffffffffffffffff1673ffffffffffffffffffffffffffffffffffffffff168152602001908152602001600020600101819055506001600260003373ffffffffffffffffffffffffffffffffffffffff1673ffffffffffffffffffffffffffffffffffffffff16815260200190815260200160002060000160006101000a81548160ff0219169083151502179055507f1a8eb374cb48e249652f02084ac8b8857fe8f88e0ba3c415fb18f85dd5b15bd13382604051808373ffffffffffffffffffffffffffffffffffffffff1673ffffffffffffffffffffffffffffffffffffffff1681526020018273ffffffffffffffffffffffffffffffffffffffff1673ffffffffffffffffffffffffffffffffffffffff1681526020019250505060405180910390a150565b60035481565b60026020528060005260406000206000915090508060000160009054906101000a900460ff16908060000160019054906101000a900460ff16905082565b6000809054906101000a900473ffffffffffffffffffffffffffffffffffffffff1681565b3373ffffffffffffffffffffffffffffffffffffffff166000809054906101000a900473ffffffffffffffffffffffffffffffffffffffff1673ffffffffffffffffffffffffffffffffffffffff1614151561060857600080fd5b600073ffffffffffffffffffffffffffffffffffffffff168273ffffffffffffffffffffffffffffffffffffffff16141580156106925750600160008373ffffffffffffffffffffffffffffffffffffffff1673ffffffffffffffffffffffffffffffffffffffff16815260200190815260200160002060000160009054906101000a900460ff16155b151561069d57600080fd5b80600160008473ffffffffffffffffffffffffffffffffffffffff1673ffffffffffffffffffffffffffffffffffffffff16815260200190815260200160002060020181600019169055506000600160008473ffffffffffffffffffffffffffffffffffffffff1673ffffffffffffffffffffffffffffffffffffffff1681526020019081526020016000206001018190555060018060008473ffffffffffffffffffffffffffffffffffffffff1673ffffffffffffffffffffffffffffffffffffffff16815260200190815260200160002060000160006101000a81548160ff0219169083151502179055507f6e61dab82606104c327b26e671aac9125d5c6370089a646ab5dd58d060692aaf8282604051808373ffffffffffffffffffffffffffffffffffffffff1673ffffffffffffffffffffffffffffffffffffffff16815260200182600019166000191681526020019250505060405180910390a15050565b60008073ffffffffffffffffffffffffffffffffffffffff168273ffffffffffffffffffffffffffffffffffffffff161415801561088b5750600160008373ffffffffffffffffffffffffffffffffffffffff1673ffffffffffffffffffffffffffffffffffffffff16815260200190815260200160002060000160009054906101000a900460ff165b151561089657600080fd5b600160008373ffffffffffffffffffffffffffffffffffffffff1673ffffffffffffffffffffffffffffffffffffffff168152602001908152602001600020600101549050919050565b3373ffffffffffffffffffffffffffffffffffffffff166000809054906101000a900473ffffffffffffffffffffffffffffffffffffffff1673ffffffffffffffffffffffffffffffffffffffff1614151561093b57600080fd5b600073ffffffffffffffffffffffffffffffffffffffff168173ffffffffffffffffffffffffffffffffffffffff16141580156109c55750600260008273ffffffffffffffffffffffffffffffffffffffff1673ffffffffffffffffffffffffffffffffffffffff16815260200190815260200160002060000160019054906101000a900460ff16155b15156109d057600080fd5b6000600260008373ffffffffffffffffffffffffffffffffffffffff1673ffffffffffffffffffffffffffffffffffffffff16815260200190815260200160002060000160006101000a81548160ff0219169083151502179055506001600260008373ffffffffffffffffffffffffffffffffffffffff1673ffffffffffffffffffffffffffffffffffffffff16815260200190815260200160002060000160016101000a81548160ff0219169083151502179055507fa636f4a11e2d3ba7f89d042ecb0a6b886716e98cd49d8fd876ee0f73bced42b881604051808273ffffffffffffffffffffffffffffffffffffffff1673ffffffffffffffffffffffffffffffffffffffff16815260200191505060405180910390a1505600a165627a7a72305820b2db22ff937e2ed3d05376717fd8bdee15d07a8c2a17d99dee1b63b6e8af9a520029",
  "source": "pragma solidity ^0.4.4;\ncontract Ballot {\n  address public chairman;\n\n  struct Party {\n    bool alreadyAdded;\n    uint voteCount;\n    bytes32 name;\n  }\n  mapping (address => Party)partListDict;\n\n  struct Voter {\n    bool hasVoted;\n    bool alreadyAdded;\n  }\n  mapping (address => Voter)public voterListDict;\n  \n  bytes32 public ballotName;\n\n  modifier onlyChairman() {\n    require(chairman == msg.sender);\n    _;\n  }\n\n  modifier isValidVoter() {\n    require(voterListDict[msg.sender].alreadyAdded == true \n    &&  voterListDict[msg.sender].hasVoted == false);\n    _;\n  }\n\n  //Events\n  event PartyAdded(address _partyAddr, bytes32 _partyName);\n  event VoterAdded(address _voterAddr);\n  event VotingDone(address _voterAddr, address _partyAddr);\n\n  //constructor\n  function Ballot(bytes32 _ballotName) public {\n    chairman = msg.sender;\n    ballotName = _ballotName;\n  }\n\n  /**\n     - Add party/proposal method\n     - Party should not be duplicated\n     - Only chairman can add party to the list.\n   */\n  function addParty(address _partyAddr, bytes32 _partyName) public onlyChairman {\n    require(_partyAddr != address(0) && !partListDict[_partyAddr].alreadyAdded);\n      partListDict[_partyAddr].name = _partyName;\n      partListDict[_partyAddr].voteCount = 0;\n      partListDict[_partyAddr].alreadyAdded = true;\n      PartyAdded(_partyAddr, _partyName);\n  }\n\n  /**\n     - Add voter method\n     - voter should not be duplicated\n     - Only chairman can add party to the list.\n   */\n  function addVoter(address _voterAddr) public onlyChairman {\n    require(_voterAddr != address(0) && !voterListDict[_voterAddr].alreadyAdded);\n      voterListDict[_voterAddr].hasVoted = false;\n      voterListDict[_voterAddr].alreadyAdded = true;      \n      VoterAdded(_voterAddr);\n  }\n\n  /**\n  - doVoting -  will be called by voter. a party can also be a voter.\n  - voter should be present in the voterlist and should not have voted so far\n  - party should be present in the list\n  */\n  function doVoting(address _partyAddr) public isValidVoter {\n    require(_partyAddr != address(0) && partListDict[_partyAddr].alreadyAdded);\n    partListDict[_partyAddr].voteCount = partListDict[_partyAddr].voteCount + 1; \n    voterListDict[msg.sender].hasVoted = true;\n    VotingDone(msg.sender,_partyAddr);\n  } \n\n  /**\n    - getVoteCount -  fetch voter count wrt party\n   */\n  function getVoteCount(address _partyAddr) public view returns(uint) {\n    require(_partyAddr != address(0) && partListDict[_partyAddr].alreadyAdded);\n    return partListDict[_partyAddr].voteCount;\n  }\n}\n",
  "sourcePath": "/home/vishwasb/Desktop/tdd_truffle_bc/contracts/Ballot.sol",
  "compiler": {
    "name": "solc",
    "version": "0.4.19+commit.c4cbbb05.Emscripten.clang"
  },
  "schemaVersion": "2.0.0",
  "updatedAt": "2018-03-09T09:27:24.572Z"
}