{
  "contractName": "Calculator",
  "abi": [
    {
      "inputs": [
        {
          "name": "val",
          "type": "uint256"
        }
      ],
      "payable": false,
      "stateMutability": "nonpayable",
      "type": "constructor"
    },
    {
      "constant": true,
      "inputs": [],
      "name": "getVal",
      "outputs": [
        {
          "name": "",
          "type": "uint256"
        }
      ],
      "payable": false,
      "stateMutability": "view",
      "type": "function"
    },
    {
      "constant": false,
      "inputs": [
        {
          "name": "val",
          "type": "uint256"
        }
      ],
      "name": "addNumber",
      "outputs": [],
      "payable": false,
      "stateMutability": "nonpayable",
      "type": "function"
    },
    {
      "constant": false,
      "inputs": [
        {
          "name": "val",
          "type": "uint256"
        }
      ],
      "name": "subNumber",
      "outputs": [],
      "payable": false,
      "stateMutability": "nonpayable",
      "type": "function"
    }
  ],
  "bytecode": "0x6060604052341561000f57600080fd5b604051602080610159833981016040528080519060200190919050508060008190555050610117806100426000396000f3006060604052600436106053576000357c0100000000000000000000000000000000000000000000000000000000900463ffffffff1680638b10c739146058578063e1cb0e52146078578063fce6802314609e575b600080fd5b3415606257600080fd5b6076600480803590602001909190505060be565b005b3415608257600080fd5b608860d0565b6040518082815260200191505060405180910390f35b341560a857600080fd5b60bc600480803590602001909190505060d9565b005b80600080828254039250508190555050565b60008054905090565b806000808282540192505081905550505600a165627a7a723058207bd0d1f08cfe3e56ac4547344068e0405a7ec29a681d7e6b81d23c20f8f77f150029",
  "source": "pragma solidity ^0.4.17;\n\ncontract Calculator {\n    uint number;\n\n    function Calculator(uint val) public {\n        number = val;\n    }\n\n    function getVal() public constant returns(uint) {\n        return number;\n    }\n\n    function addNumber(uint val) public {\n        number += val;\n    }\n\n    function subNumber(uint val) public {\n        number -= val;\n    }\n}",
  "sourcePath": "/home/vishwasb/Desktop/tdd_truffle_bc/contracts/Calculator.sol",
  "compiler": {
    "name": "solc",
    "version": "0.4.19+commit.c4cbbb05.Emscripten.clang"
  },
  "schemaVersion": "2.0.0",
  "updatedAt": "2018-03-09T05:30:57.674Z"
}