{
  "contractName": "FundRaise",
  "abi": [
    {
      "constant": true,
      "inputs": [],
      "name": "owner",
      "outputs": [
        {
          "name": "",
          "type": "address"
        }
      ],
      "payable": false,
      "stateMutability": "view",
      "type": "function"
    },
    {
      "inputs": [],
      "payable": false,
      "stateMutability": "nonpayable",
      "type": "constructor"
    },
    {
      "payable": true,
      "stateMutability": "payable",
      "type": "fallback"
    },
    {
      "constant": false,
      "inputs": [],
      "name": "pause",
      "outputs": [],
      "payable": false,
      "stateMutability": "nonpayable",
      "type": "function"
    },
    {
      "constant": false,
      "inputs": [],
      "name": "unpause",
      "outputs": [],
      "payable": false,
      "stateMutability": "nonpayable",
      "type": "function"
    },
    {
      "constant": false,
      "inputs": [],
      "name": "removeFunds",
      "outputs": [],
      "payable": false,
      "stateMutability": "nonpayable",
      "type": "function"
    },
    {
      "constant": true,
      "inputs": [],
      "name": "getContractBalance",
      "outputs": [
        {
          "name": "",
          "type": "uint256"
        }
      ],
      "payable": false,
      "stateMutability": "view",
      "type": "function"
    }
  ],
  "bytecode": "0x6060604052341561000f57600080fd5b336000806101000a81548173ffffffffffffffffffffffffffffffffffffffff021916908373ffffffffffffffffffffffffffffffffffffffff16021790555061031b8061005e6000396000f30060606040526004361061006d576000357c0100000000000000000000000000000000000000000000000000000000900463ffffffff1680633f4ba83a1461008b5780636f9fb98a146100a05780638456cb59146100c95780638da5cb5b146100de578063feac51f514610133575b600060149054906101000a900460ff1615151561008957600080fd5b005b341561009657600080fd5b61009e610148565b005b34156100ab57600080fd5b6100b36101bc565b6040518082815260200191505060405180910390f35b34156100d457600080fd5b6100dc6101db565b005b34156100e957600080fd5b6100f1610250565b604051808273ffffffffffffffffffffffffffffffffffffffff1673ffffffffffffffffffffffffffffffffffffffff16815260200191505060405180910390f35b341561013e57600080fd5b610146610275565b005b3373ffffffffffffffffffffffffffffffffffffffff166000809054906101000a900473ffffffffffffffffffffffffffffffffffffffff1673ffffffffffffffffffffffffffffffffffffffff161415156101a057fe5b60008060146101000a81548160ff021916908315150217905550565b60003073ffffffffffffffffffffffffffffffffffffffff1631905090565b3373ffffffffffffffffffffffffffffffffffffffff166000809054906101000a900473ffffffffffffffffffffffffffffffffffffffff1673ffffffffffffffffffffffffffffffffffffffff1614151561023357fe5b6001600060146101000a81548160ff021916908315150217905550565b6000809054906101000a900473ffffffffffffffffffffffffffffffffffffffff1681565b6000809054906101000a900473ffffffffffffffffffffffffffffffffffffffff1673ffffffffffffffffffffffffffffffffffffffff166108fc3073ffffffffffffffffffffffffffffffffffffffff16319081150290604051600060405180830381858888f1935050505015156102ed57600080fd5b5600a165627a7a72305820dceaab09e8da13fb2f1e587ec4951bb203269c920103cf9b88e12728a63529ed0029",
  "source": "pragma solidity ^0.4.17;\n    /**\n        1. Create a fundraise contract for owner.\n        2. When paused, the fund should not be raised.\n        3. Fund should only be transfered to the owner.\n        4. Later on implement expiry date time into the contract.\n        5. Write test cases for this contract in the truffle and deploy it on Ganche.    \n    */\ncontract FundRaise {\n    address public owner;\n    bool paused;\n\n    // modifiers\n    modifier onlyOwner() {\n        assert(owner == msg.sender);\n        _;\n    }\n\n    modifier ifNotPaused(){\n        require(!paused);\n        _;\n    }\n\n    // @dev constructor function. Sets contract owner\n    function FundRaise() public{\n        owner = msg.sender;\n    }\n\n    // fallback function to accept ETH into contract.\n    function () ifNotPaused payable  public{\n    }\n\n    function pause() public onlyOwner {\n        paused = true;\n    }\n\n    function unpause() public onlyOwner {\n        paused = false;\n    }\n\n    function removeFunds() public {\n        owner.transfer(this.balance);\n    }\n\n    function getContractBalance() public constant returns(uint){\n        return this.balance;\n    }\n}\n",
  "sourcePath": "/home/vishwasb/Desktop/tdd_truffle_bc/contracts/FundRaise.sol",
  "compiler": {
    "name": "solc",
    "version": "0.4.19+commit.c4cbbb05.Emscripten.clang"
  },
  "schemaVersion": "2.0.0",
  "updatedAt": "2018-03-09T05:30:57.675Z"
}